{
  "_format": "hh-sol-artifact-1",
  "contractName": "Catoshi",
  "sourceName": "contracts/Catoshi.sol",
  "abi": [
    {
      "inputs": [
        {
          "internalType": "string",
          "name": "cats_name",
          "type": "string"
        },
        {
          "internalType": "string",
          "name": "cats_symbol",
          "type": "string"
        }
      ],
      "stateMutability": "nonpayable",
      "type": "constructor"
    },
    {
      "anonymous": false,
      "inputs": [
        {
          "indexed": true,
          "internalType": "address",
          "name": "owner",
          "type": "address"
        },
        {
          "indexed": true,
          "internalType": "address",
          "name": "spender",
          "type": "address"
        },
        {
          "indexed": false,
          "internalType": "uint256",
          "name": "value",
          "type": "uint256"
        }
      ],
      "name": "Approval",
      "type": "event"
    },
    {
      "anonymous": false,
      "inputs": [
        {
          "indexed": true,
          "internalType": "address",
          "name": "previousOwner",
          "type": "address"
        },
        {
          "indexed": true,
          "internalType": "address",
          "name": "newOwner",
          "type": "address"
        }
      ],
      "name": "OwnershipTransferred",
      "type": "event"
    },
    {
      "anonymous": false,
      "inputs": [
        {
          "indexed": true,
          "internalType": "address",
          "name": "from",
          "type": "address"
        },
        {
          "indexed": true,
          "internalType": "address",
          "name": "to",
          "type": "address"
        },
        {
          "indexed": false,
          "internalType": "uint256",
          "name": "value",
          "type": "uint256"
        }
      ],
      "name": "Transfer",
      "type": "event"
    },
    {
      "inputs": [
        {
          "internalType": "address",
          "name": "owner",
          "type": "address"
        },
        {
          "internalType": "address",
          "name": "spender",
          "type": "address"
        }
      ],
      "name": "allowance",
      "outputs": [
        {
          "internalType": "uint256",
          "name": "",
          "type": "uint256"
        }
      ],
      "stateMutability": "view",
      "type": "function"
    },
    {
      "inputs": [
        {
          "internalType": "address",
          "name": "spender",
          "type": "address"
        },
        {
          "internalType": "uint256",
          "name": "amount",
          "type": "uint256"
        }
      ],
      "name": "approve",
      "outputs": [
        {
          "internalType": "bool",
          "name": "",
          "type": "bool"
        }
      ],
      "stateMutability": "nonpayable",
      "type": "function"
    },
    {
      "inputs": [
        {
          "internalType": "address",
          "name": "account",
          "type": "address"
        }
      ],
      "name": "balanceOf",
      "outputs": [
        {
          "internalType": "uint256",
          "name": "",
          "type": "uint256"
        }
      ],
      "stateMutability": "view",
      "type": "function"
    },
    {
      "inputs": [
        {
          "internalType": "uint256",
          "name": "tAmount",
          "type": "uint256"
        }
      ],
      "name": "burnOf",
      "outputs": [],
      "stateMutability": "nonpayable",
      "type": "function"
    },
    {
      "inputs": [],
      "name": "decimals",
      "outputs": [
        {
          "internalType": "uint8",
          "name": "",
          "type": "uint8"
        }
      ],
      "stateMutability": "view",
      "type": "function"
    },
    {
      "inputs": [
        {
          "internalType": "address",
          "name": "spender",
          "type": "address"
        },
        {
          "internalType": "uint256",
          "name": "subtractedValue",
          "type": "uint256"
        }
      ],
      "name": "decreaseAllowance",
      "outputs": [
        {
          "internalType": "bool",
          "name": "",
          "type": "bool"
        }
      ],
      "stateMutability": "nonpayable",
      "type": "function"
    },
    {
      "inputs": [
        {
          "internalType": "address",
          "name": "account",
          "type": "address"
        }
      ],
      "name": "excludeAccount",
      "outputs": [],
      "stateMutability": "nonpayable",
      "type": "function"
    },
    {
      "inputs": [
        {
          "internalType": "address",
          "name": "account",
          "type": "address"
        }
      ],
      "name": "includeAccount",
      "outputs": [],
      "stateMutability": "nonpayable",
      "type": "function"
    },
    {
      "inputs": [
        {
          "internalType": "address",
          "name": "spender",
          "type": "address"
        },
        {
          "internalType": "uint256",
          "name": "addedValue",
          "type": "uint256"
        }
      ],
      "name": "increaseAllowance",
      "outputs": [
        {
          "internalType": "bool",
          "name": "",
          "type": "bool"
        }
      ],
      "stateMutability": "nonpayable",
      "type": "function"
    },
    {
      "inputs": [
        {
          "internalType": "address",
          "name": "account",
          "type": "address"
        }
      ],
      "name": "isExcluded",
      "outputs": [
        {
          "internalType": "bool",
          "name": "",
          "type": "bool"
        }
      ],
      "stateMutability": "view",
      "type": "function"
    },
    {
      "inputs": [],
      "name": "name",
      "outputs": [
        {
          "internalType": "string",
          "name": "",
          "type": "string"
        }
      ],
      "stateMutability": "view",
      "type": "function"
    },
    {
      "inputs": [],
      "name": "owner",
      "outputs": [
        {
          "internalType": "address",
          "name": "",
          "type": "address"
        }
      ],
      "stateMutability": "view",
      "type": "function"
    },
    {
      "inputs": [
        {
          "internalType": "uint256",
          "name": "tAmount",
          "type": "uint256"
        }
      ],
      "name": "reflect",
      "outputs": [],
      "stateMutability": "nonpayable",
      "type": "function"
    },
    {
      "inputs": [
        {
          "internalType": "uint256",
          "name": "tAmount",
          "type": "uint256"
        },
        {
          "internalType": "bool",
          "name": "deductTransferFee",
          "type": "bool"
        }
      ],
      "name": "reflectionFromToken",
      "outputs": [
        {
          "internalType": "uint256",
          "name": "",
          "type": "uint256"
        }
      ],
      "stateMutability": "view",
      "type": "function"
    },
    {
      "inputs": [],
      "name": "renounceOwnership",
      "outputs": [],
      "stateMutability": "nonpayable",
      "type": "function"
    },
    {
      "inputs": [],
      "name": "symbol",
      "outputs": [
        {
          "internalType": "string",
          "name": "",
          "type": "string"
        }
      ],
      "stateMutability": "view",
      "type": "function"
    },
    {
      "inputs": [
        {
          "internalType": "uint256",
          "name": "rAmount",
          "type": "uint256"
        }
      ],
      "name": "tokenFromReflection",
      "outputs": [
        {
          "internalType": "uint256",
          "name": "",
          "type": "uint256"
        }
      ],
      "stateMutability": "view",
      "type": "function"
    },
    {
      "inputs": [],
      "name": "totalFees",
      "outputs": [
        {
          "internalType": "uint256",
          "name": "",
          "type": "uint256"
        }
      ],
      "stateMutability": "view",
      "type": "function"
    },
    {
      "inputs": [],
      "name": "totalSupply",
      "outputs": [
        {
          "internalType": "uint256",
          "name": "",
          "type": "uint256"
        }
      ],
      "stateMutability": "view",
      "type": "function"
    },
    {
      "inputs": [
        {
          "internalType": "address",
          "name": "recipient",
          "type": "address"
        },
        {
          "internalType": "uint256",
          "name": "amount",
          "type": "uint256"
        }
      ],
      "name": "transfer",
      "outputs": [
        {
          "internalType": "bool",
          "name": "",
          "type": "bool"
        }
      ],
      "stateMutability": "nonpayable",
      "type": "function"
    },
    {
      "inputs": [
        {
          "internalType": "address",
          "name": "sender",
          "type": "address"
        },
        {
          "internalType": "address",
          "name": "recipient",
          "type": "address"
        },
        {
          "internalType": "uint256",
          "name": "amount",
          "type": "uint256"
        }
      ],
      "name": "transferFrom",
      "outputs": [
        {
          "internalType": "bool",
          "name": "",
          "type": "bool"
        }
      ],
      "stateMutability": "nonpayable",
      "type": "function"
    },
    {
      "inputs": [
        {
          "internalType": "address",
          "name": "newOwner",
          "type": "address"
        }
      ],
      "name": "transferOwnership",
      "outputs": [],
      "stateMutability": "nonpayable",
      "type": "function"
    }
  ],
  "bytecode": "0x60806040526003805460ff19166012179055600c80546001600160a01b03191673a39de4d50b9e5515d32ca08411224062101e2be91790553480156200004457600080fd5b50604051620026c9380380620026c9833981810160405260408110156200006a57600080fd5b81019080805160405193929190846401000000008211156200008b57600080fd5b908301906020820185811115620000a157600080fd5b8251640100000000811182820188101715620000bc57600080fd5b82525081516020918201929091019080838360005b83811015620000eb578181015183820152602001620000d1565b50505050905090810190601f168015620001195780820380516001836020036101000a031916815260200191505b50604052602001805160405193929190846401000000008211156200013d57600080fd5b9083019060208201858111156200015357600080fd5b82516401000000008111828201881017156200016e57600080fd5b82525081516020918201929091019080838360005b838110156200019d57818101518382015260200162000183565b50505050905090810190601f168015620001cb5780820380516001836020036101000a031916815260200191505b506040525050506000620001e4620003fa60201b60201c565b600080546001600160a01b0319166001600160a01b0383169081178255604051929350917f8be0079c531659141344cd1fd0a4f28419497f9722a3daafe3b4186f6b6457e0908290a35060006200027060326200025c60646a22bdd88fed9efc6a000000620003ff60201b6200168c1790919060201c565b6200045260201b620016ce1790919060201c565b905062000297816a22bdd88fed9efc6a000000620004b060201b620011931790919060201c565b600981905560001981620002a757fe5b0619600a81905560046000620002c56001600160e01b03620003fa16565b6001600160a01b03166001600160a01b03168152602001908152602001600020819055506200032660196200025c6064620003126064600954620003ff60201b6200168c1790919060201c565b620003ff60201b6200168c1790919060201c565b600d5582516200033e906001906020860190620005fe565b50815162000354906002906020850190620005fe565b50620003686001600160e01b03620003fa16565b6001600160a01b031660006001600160a01b0316600080516020620026a98339815191526a22bdd88fed9efc6a0000006040518082815260200191505060405180910390a36000620003c26001600160e01b03620003fa16565b6001600160a01b0316600080516020620026a9833981519152836040518082815260200191505060405180910390a3505050620006a0565b335b90565b60006200044983836040518060400160405280601a81526020017f536166654d6174683a206469766973696f6e206279207a65726f000000000000815250620004fa60201b60201c565b90505b92915050565b60008262000463575060006200044c565b828202828482816200047157fe5b0414620004495760405162461bcd60e51b8152600401808060200182810382526021815260200180620026886021913960400191505060405180910390fd5b60006200044983836040518060400160405280601e81526020017f536166654d6174683a207375627472616374696f6e206f766572666c6f770000815250620005a160201b60201c565b600081836200058a5760405162461bcd60e51b81526004018080602001828103825283818151815260200191508051906020019080838360005b838110156200054e57818101518382015260200162000534565b50505050905090810190601f1680156200057c5780820380516001836020036101000a031916815260200191505b509250505060405180910390fd5b5060008385816200059757fe5b0495945050505050565b60008184841115620005f65760405162461bcd60e51b81526020600482018181528351602484015283519092839260449091019190850190808383600083156200054e57818101518382015260200162000534565b505050900390565b828054600181600116156101000203166002900490600052602060002090601f016020900481019282601f106200064157805160ff191683800117855562000671565b8280016001018555821562000671579182015b828111156200067157825182559160200191906001019062000654565b506200067f92915062000683565b5090565b620003fc91905b808211156200067f57600081556001016200068a565b611fd880620006b06000396000f3fe608060405234801561001057600080fd5b50600436106101825760003560e01c806370a08231116100d8578063a9059cbb1161008c578063f2cc0c1811610066578063f2cc0c181461046a578063f2fde38b14610490578063f84354f1146104b657610182565b8063a9059cbb146103ea578063cba0e99614610416578063dd62ed3e1461043c57610182565b80638da5cb5b116100bd5780638da5cb5b1461039257806395d89b41146103b6578063a457c2d7146103be57610182565b806370a0823114610364578063715018a61461038a57610182565b806323b872dd1161013a578063395093511161011457806339509351146102f657806340710e6f146103225780634549b0391461033f57610182565b806323b872dd146102855780632d838119146102bb578063313ce567146102d857610182565b8063095ea7b31161016b578063095ea7b31461022357806313114a9d1461026357806318160ddd1461027d57610182565b8063053ab1821461018757806306fdde03146101a6575b600080fd5b6101a46004803603602081101561019d57600080fd5b50356104dc565b005b6101ae6105ca565b6040805160208082528351818301528351919283929083019185019080838360005b838110156101e85781810151838201526020016101d0565b50505050905090810190601f1680156102155780820380516001836020036101000a031916815260200191505b509250505060405180910390f35b61024f6004803603604081101561023957600080fd5b506001600160a01b03813516906020013561067d565b604080519115158252519081900360200190f35b61026b61069b565b60408051918252519081900360200190f35b61026b6106a1565b61024f6004803603606081101561029b57600080fd5b506001600160a01b038135811691602081013590911690604001356106a7565b61026b600480360360208110156102d157600080fd5b5035610734565b6102e061079c565b6040805160ff9092168252519081900360200190f35b61024f6004803603604081101561030c57600080fd5b506001600160a01b0381351690602001356107a5565b6101a46004803603602081101561033857600080fd5b50356107f9565b61026b6004803603604081101561035557600080fd5b50803590602001351515610895565b61026b6004803603602081101561037a57600080fd5b50356001600160a01b0316610929565b6101a461098b565b61039a610a61565b604080516001600160a01b039092168252519081900360200190f35b6101ae610a70565b61024f600480360360408110156103d457600080fd5b506001600160a01b038135169060200135610aec565b61024f6004803603604081101561040057600080fd5b506001600160a01b038135169060200135610b5a565b61024f6004803603602081101561042c57600080fd5b50356001600160a01b0316610b6e565b61026b6004803603604081101561045257600080fd5b506001600160a01b0381358116916020013516610b8c565b6101a46004803603602081101561048057600080fd5b50356001600160a01b0316610bb7565b6101a4600480360360208110156104a657600080fd5b50356001600160a01b0316610d8f565b6101a4600480360360208110156104cc57600080fd5b50356001600160a01b0316610ebb565b60006104e6611122565b6001600160a01b03811660009081526007602052604090205490915060ff16156105415760405162461bcd60e51b815260040180806020018281038252602c815260200180611f52602c913960400191505060405180910390fd5b600061054c83611126565b5050506001600160a01b0386166000908152600460205260409020549394506105809392508491505063ffffffff61119316565b6001600160a01b038316600090815260046020526040902055600a546105ac908263ffffffff61119316565b600a55600b546105c2908463ffffffff6111dc16565b600b55505050565b60018054604080516020601f60027fffffffffffffffffffffffffffffffffffffffffffffffffffffffffffffffff61010087891615020190951694909404938401819004810282018101909252828152606093909290918301828280156106735780601f1061064857610100808354040283529160200191610673565b820191906000526020600020905b81548152906001019060200180831161065657829003601f168201915b5050505050905090565b600061069161068a611122565b8484611236565b5060015b92915050565b600b5490565b60095490565b60006106b4848484611322565b61072a846106c0611122565b61072585604051806060016040528060288152602001611eb8602891396001600160a01b038a166000908152600660205260408120906106fe611122565b6001600160a01b03168152602081019190915260400160002054919063ffffffff6115cc16565b611236565b5060019392505050565b6000600a548211156107775760405162461bcd60e51b815260040180806020018281038252602a815260200180611dfe602a913960400191505060405180910390fd5b6000610781611663565b9050610793838263ffffffff61168c16565b9150505b919050565b60035460ff1690565b60006106916107b2611122565b8461072585600660006107c3611122565b6001600160a01b03908116825260208083019390935260409182016000908120918c16815292529020549063ffffffff6111dc16565b6000610803611663565b90506000610817838363ffffffff6116ce16565b60095490915061082d908463ffffffff61119316565b600955600a54610843908263ffffffff61119316565b600a556000610850611122565b6001600160a01b03167fddf252ad1be2c89b69c2b068fc378daa952ba7f163c4a11628f55a4df523b3ef856040518082815260200191505060405180910390a3505050565b60006009548311156108ee576040805162461bcd60e51b815260206004820152601f60248201527f416d6f756e74206d757374206265206c657373207468616e20737570706c7900604482015290519081900360640190fd5b8161090e5760006108fe84611126565b5094965061069595505050505050565b600061091984611126565b5093965061069595505050505050565b6001600160a01b03811660009081526007602052604081205460ff161561096957506001600160a01b038116600090815260056020526040902054610797565b6001600160a01b03821660009081526004602052604090205461069590610734565b610993611122565b6001600160a01b03166109a4610a61565b6001600160a01b0316146109ff576040805162461bcd60e51b815260206004820181905260248201527f4f776e61626c653a2063616c6c6572206973206e6f7420746865206f776e6572604482015290519081900360640190fd5b600080546040516001600160a01b03909116907f8be0079c531659141344cd1fd0a4f28419497f9722a3daafe3b4186f6b6457e0908390a3600080547fffffffffffffffffffffffff0000000000000000000000000000000000000000169055565b6000546001600160a01b031690565b60028054604080516020601f7fffffffffffffffffffffffffffffffffffffffffffffffffffffffffffffffff61010060018716150201909416859004938401819004810282018101909252828152606093909290918301828280156106735780601f1061064857610100808354040283529160200191610673565b6000610691610af9611122565b8461072585604051806060016040528060258152602001611f7e6025913960066000610b23611122565b6001600160a01b03908116825260208083019390935260409182016000908120918d1681529252902054919063ffffffff6115cc16565b6000610691610b67611122565b8484611322565b6001600160a01b031660009081526007602052604090205460ff1690565b6001600160a01b03918216600090815260066020908152604080832093909416825291909152205490565b610bbf611122565b6001600160a01b0316610bd0610a61565b6001600160a01b031614610c2b576040805162461bcd60e51b815260206004820181905260248201527f4f776e61626c653a2063616c6c6572206973206e6f7420746865206f776e6572604482015290519081900360640190fd5b6001600160a01b03811660009081526007602052604090205460ff1615610c99576040805162461bcd60e51b815260206004820152601b60248201527f4163636f756e7420697320616c7265616479206578636c756465640000000000604482015290519081900360640190fd5b6001600160a01b03811660009081526004602052604090205415610cf3576001600160a01b038116600090815260046020526040902054610cd990610734565b6001600160a01b0382166000908152600560205260409020555b6001600160a01b0316600081815260076020526040812080547fffffffffffffffffffffffffffffffffffffffffffffffffffffffffffffff001660019081179091556008805491820181559091527ff3f7a9fe364faab93b216da50a3214154f22a0a2b415b23a84c8169e8b636ee30180547fffffffffffffffffffffffff0000000000000000000000000000000000000000169091179055565b610d97611122565b6001600160a01b0316610da8610a61565b6001600160a01b031614610e03576040805162461bcd60e51b815260206004820181905260248201527f4f776e61626c653a2063616c6c6572206973206e6f7420746865206f776e6572604482015290519081900360640190fd5b6001600160a01b038116610e485760405162461bcd60e51b8152600401808060200182810382526026815260200180611e286026913960400191505060405180910390fd5b600080546040516001600160a01b03808516939216917f8be0079c531659141344cd1fd0a4f28419497f9722a3daafe3b4186f6b6457e091a3600080547fffffffffffffffffffffffff0000000000000000000000000000000000000000166001600160a01b0392909216919091179055565b610ec3611122565b6001600160a01b0316610ed4610a61565b6001600160a01b031614610f2f576040805162461bcd60e51b815260206004820181905260248201527f4f776e61626c653a2063616c6c6572206973206e6f7420746865206f776e6572604482015290519081900360640190fd5b6001600160a01b03811660009081526007602052604090205460ff16610f9c576040805162461bcd60e51b815260206004820152601b60248201527f4163636f756e7420697320616c7265616479206578636c756465640000000000604482015290519081900360640190fd5b60005b60085481101561111e57816001600160a01b031660088281548110610fc057fe5b6000918252602090912001546001600160a01b0316141561111657600880547fffffffffffffffffffffffffffffffffffffffffffffffffffffffffffffffff810190811061100b57fe5b600091825260209091200154600880546001600160a01b03909216918390811061103157fe5b600091825260208083209190910180547fffffffffffffffffffffffff0000000000000000000000000000000000000000166001600160a01b03948516179055918416815260058252604080822082905560079092522080547fffffffffffffffffffffffffffffffffffffffffffffffffffffffffffffff0016905560088054806110b957fe5b60008281526020902081017fffffffffffffffffffffffffffffffffffffffffffffffffffffffffffffffff90810180547fffffffffffffffffffffffff000000000000000000000000000000000000000016905501905561111e565b600101610f9f565b5050565b3390565b60008060008060008060008060008060006111408c611727565b93509350935093506000611152611663565b90508c600080806111648489876117b9565b92509250925082828289898d8d9f509f509f509f509f509f509f50505050505050505050919395979092949650565b60006111d583836040518060400160405280601e81526020017f536166654d6174683a207375627472616374696f6e206f766572666c6f7700008152506115cc565b9392505050565b6000828201838110156111d5576040805162461bcd60e51b815260206004820152601b60248201527f536166654d6174683a206164646974696f6e206f766572666c6f770000000000604482015290519081900360640190fd5b6001600160a01b03831661127b5760405162461bcd60e51b8152600401808060200182810382526024815260200180611f2e6024913960400191505060405180910390fd5b6001600160a01b0382166112c05760405162461bcd60e51b8152600401808060200182810382526022815260200180611e4e6022913960400191505060405180910390fd5b6001600160a01b03808416600081815260066020908152604080832094871680845294825291829020859055815185815291517f8c5be1e5ebec7d5bd14f71427d1e84f3dd0314c0f7b2291e5b200ac8c7c3b9259281900390910190a3505050565b6001600160a01b0383166113675760405162461bcd60e51b8152600401808060200182810382526025815260200180611f096025913960400191505060405180910390fd5b6001600160a01b0382166113ac5760405162461bcd60e51b8152600401808060200182810382526023815260200180611ddb6023913960400191505060405180910390fd5b600081116113eb5760405162461bcd60e51b8152600401808060200182810382526029815260200180611ee06029913960400191505060405180910390fd5b6113f3610a61565b6001600160a01b0316836001600160a01b03161415801561142d5750611417610a61565b6001600160a01b0316826001600160a01b031614155b1561147357600d548111156114735760405162461bcd60e51b8152600401808060200182810382526027815260200180611e706027913960400191505060405180910390fd5b6001600160a01b03831660009081526007602052604090205460ff1680156114b457506001600160a01b03821660009081526007602052604090205460ff16155b156114c9576114c4838383611807565b6115c7565b6001600160a01b03831660009081526007602052604090205460ff1615801561150a57506001600160a01b03821660009081526007602052604090205460ff165b1561151a576114c4838383611a1c565b6001600160a01b03831660009081526007602052604090205460ff1615801561155c57506001600160a01b03821660009081526007602052604090205460ff16155b1561156c576114c4838383611ae7565b6001600160a01b03831660009081526007602052604090205460ff1680156115ac57506001600160a01b03821660009081526007602052604090205460ff165b156115bc576114c4838383611b41565b6115c7838383611ae7565b505050565b6000818484111561165b5760405162461bcd60e51b81526004018080602001828103825283818151815260200191508051906020019080838360005b83811015611620578181015183820152602001611608565b50505050905090810190601f16801561164d5780820380516001836020036101000a031916815260200191505b509250505060405180910390fd5b505050900390565b6000806000611670611bd0565b9092509050611685828263ffffffff61168c16565b9250505090565b60006111d583836040518060400160405280601a81526020017f536166654d6174683a206469766973696f6e206279207a65726f000000000000815250611d45565b6000826116dd57506000610695565b828202828482816116ea57fe5b04146111d55760405162461bcd60e51b8152600401808060200182810382526021815260200180611e976021913960400191505060405180910390fd5b60008080808061174f600361174388606463ffffffff61168c16565b9063ffffffff6116ce16565b90506000611769600261174389606463ffffffff61168c16565b9050600061178360016117438a606463ffffffff61168c16565b905060006117a98261179d85818d8963ffffffff61119316565b9063ffffffff61119316565b9993985091965094509092505050565b60008080806117ce878663ffffffff6116ce16565b905060006117e2878763ffffffff6116ce16565b905060006117f6838363ffffffff61119316565b929992985090965090945050505050565b600080600080600080600061181b88611126565b965096509650965096509650965061186188600560008d6001600160a01b03166001600160a01b031681526020019081526020016000205461119390919063ffffffff16565b6001600160a01b038b16600090815260056020908152604080832093909355600490522054611896908863ffffffff61119316565b6001600160a01b03808c1660009081526004602052604080822093909355908b16815220546118cb908763ffffffff6111dc16565b6001600160a01b038a166000908152600460205260409020556118ee8582611daa565b60006118f8611663565b9050600061190c868363ffffffff6116ce16565b600954909150611922908763ffffffff61119316565b600955600a54611938908263ffffffff61119316565b600a556040805185815290516001600160a01b03808e1692908f16917fddf252ad1be2c89b69c2b068fc378daa952ba7f163c4a11628f55a4df523b3ef9181900360200190a3600c546040805187815290516001600160a01b03928316928f16917fddf252ad1be2c89b69c2b068fc378daa952ba7f163c4a11628f55a4df523b3ef919081900360200190a360006119ce611122565b6001600160a01b03167fddf252ad1be2c89b69c2b068fc378daa952ba7f163c4a11628f55a4df523b3ef886040518082815260200191505060405180910390a3505050505050505050505050565b6000806000806000806000611a3088611126565b9650965096509650965096509650611a7687600460008d6001600160a01b03166001600160a01b031681526020019081526020016000205461119390919063ffffffff16565b6001600160a01b03808c16600090815260046020908152604080832094909455918c16815260059091522054611ab2908363ffffffff6111dc16565b6001600160a01b038a166000908152600560209081526040808320939093556004905220546118cb908763ffffffff6111dc16565b6000806000806000806000611afb88611126565b965096509650965096509650965061189687600460008d6001600160a01b03166001600160a01b031681526020019081526020016000205461119390919063ffffffff16565b6000806000806000806000611b5588611126565b9650965096509650965096509650611b9b88600560008d6001600160a01b03166001600160a01b031681526020019081526020016000205461119390919063ffffffff16565b6001600160a01b038b16600090815260056020908152604080832093909355600490522054611a76908863ffffffff61119316565b600a546009546000918291825b600854811015611d0d57826004600060088481548110611bf957fe5b60009182526020808320909101546001600160a01b031683528201929092526040019020541180611c5e5750816005600060088481548110611c3757fe5b60009182526020808320909101546001600160a01b03168352820192909252604001902054115b15611c7557600a5460095494509450505050611d41565b611cbb6004600060088481548110611c8957fe5b60009182526020808320909101546001600160a01b03168352820192909252604001902054849063ffffffff61119316565b9250611d036005600060088481548110611cd157fe5b60009182526020808320909101546001600160a01b03168352820192909252604001902054839063ffffffff61119316565b9150600101611bdd565b50600954600a54611d239163ffffffff61168c16565b821015611d3b57600a54600954935093505050611d41565b90925090505b9091565b60008183611d945760405162461bcd60e51b8152602060048201818152835160248401528351909283926044909101919085019080838360008315611620578181015183820152602001611608565b506000838581611da057fe5b0495945050505050565b600a54611dbd908363ffffffff61119316565b600a55600b54611dd3908263ffffffff6111dc16565b600b55505056fe45524332303a207472616e7366657220746f20746865207a65726f2061646472657373416d6f756e74206d757374206265206c657373207468616e20746f74616c207265666c656374696f6e734f776e61626c653a206e6577206f776e657220697320746865207a65726f206164647265737345524332303a20617070726f766520746f20746865207a65726f20616464726573735472616e7366657220616d6f756e74206578636565647320746865206d785478416d6f756e742e536166654d6174683a206d756c7469706c69636174696f6e206f766572666c6f7745524332303a207472616e7366657220616d6f756e74206578636565647320616c6c6f77616e63655472616e7366657220616d6f756e74206d7573742062652067726561746572207468616e207a65726f45524332303a207472616e736665722066726f6d20746865207a65726f206164647265737345524332303a20617070726f76652066726f6d20746865207a65726f20616464726573734578636c75646564206164647265737365732063616e6e6f742063616c6c20746869732066756e6374696f6e45524332303a2064656372656173656420616c6c6f77616e63652062656c6f77207a65726fa2646970667358221220a8095726b22cc6726ced18a9920311e97b9c6c90db5259dc910ffb3ae3684af964736f6c63430006020033536166654d6174683a206d756c7469706c69636174696f6e206f766572666c6f77ddf252ad1be2c89b69c2b068fc378daa952ba7f163c4a11628f55a4df523b3ef",
  "linkReferences": {},
  "deployedLinkReferences": {}
}